{
  "contractName": "Like",
  "abi": [
    {
      "constant": true,
      "inputs": [],
      "name": "enabled",
      "outputs": [
        {
          "name": "",
          "type": "bool"
        }
      ],
      "payable": false,
      "stateMutability": "view",
      "type": "function"
    },
    {
      "constant": false,
      "inputs": [],
      "name": "enableContract",
      "outputs": [],
      "payable": false,
      "stateMutability": "nonpayable",
      "type": "function"
    },
    {
      "constant": false,
      "inputs": [],
      "name": "disableContract",
      "outputs": [],
      "payable": false,
      "stateMutability": "nonpayable",
      "type": "function"
    },
    {
      "constant": true,
      "inputs": [],
      "name": "owner",
      "outputs": [
        {
          "name": "",
          "type": "address"
        }
      ],
      "payable": false,
      "stateMutability": "view",
      "type": "function"
    },
    {
      "constant": true,
      "inputs": [],
      "name": "maxDonationLimit",
      "outputs": [
        {
          "name": "",
          "type": "uint256"
        }
      ],
      "payable": false,
      "stateMutability": "view",
      "type": "function"
    },
    {
      "constant": false,
      "inputs": [
        {
          "name": "newOwner",
          "type": "address"
        }
      ],
      "name": "transferOwnership",
      "outputs": [],
      "payable": false,
      "stateMutability": "nonpayable",
      "type": "function"
    },
    {
      "anonymous": false,
      "inputs": [
        {
          "indexed": false,
          "name": "url",
          "type": "string"
        }
      ],
      "name": "RegisterSuccess",
      "type": "event"
    },
    {
      "anonymous": false,
      "inputs": [
        {
          "indexed": false,
          "name": "url",
          "type": "string"
        }
      ],
      "name": "Unregister",
      "type": "event"
    },
    {
      "anonymous": false,
      "inputs": [
        {
          "indexed": false,
          "name": "url",
          "type": "string"
        }
      ],
      "name": "RecoverLink",
      "type": "event"
    },
    {
      "anonymous": false,
      "inputs": [
        {
          "indexed": false,
          "name": "url",
          "type": "string"
        },
        {
          "indexed": false,
          "name": "amount",
          "type": "uint256"
        }
      ],
      "name": "LikeLink",
      "type": "event"
    },
    {
      "anonymous": false,
      "inputs": [
        {
          "indexed": false,
          "name": "url",
          "type": "string"
        }
      ],
      "name": "Dislike",
      "type": "event"
    },
    {
      "anonymous": false,
      "inputs": [
        {
          "indexed": true,
          "name": "enabled",
          "type": "bool"
        }
      ],
      "name": "EnableStatusChanged",
      "type": "event"
    },
    {
      "anonymous": false,
      "inputs": [
        {
          "indexed": true,
          "name": "previousOwner",
          "type": "address"
        },
        {
          "indexed": true,
          "name": "newOwner",
          "type": "address"
        }
      ],
      "name": "OwnershipTransferred",
      "type": "event"
    },
    {
      "constant": false,
      "inputs": [
        {
          "name": "limit",
          "type": "uint256"
        }
      ],
      "name": "setMaxDonationLimit",
      "outputs": [],
      "payable": false,
      "stateMutability": "nonpayable",
      "type": "function"
    },
    {
      "constant": false,
      "inputs": [
        {
          "name": "url",
          "type": "string"
        }
      ],
      "name": "disableLinkByAdmin",
      "outputs": [],
      "payable": false,
      "stateMutability": "nonpayable",
      "type": "function"
    },
    {
      "constant": false,
      "inputs": [
        {
          "name": "url",
          "type": "string"
        }
      ],
      "name": "enableLinkByAdmin",
      "outputs": [],
      "payable": false,
      "stateMutability": "nonpayable",
      "type": "function"
    },
    {
      "constant": false,
      "inputs": [
        {
          "name": "url",
          "type": "string"
        }
      ],
      "name": "registerLink",
      "outputs": [],
      "payable": false,
      "stateMutability": "nonpayable",
      "type": "function"
    },
    {
      "constant": true,
      "inputs": [
        {
          "name": "url",
          "type": "string"
        }
      ],
      "name": "getOwnerFromUrl",
      "outputs": [
        {
          "name": "",
          "type": "address"
        },
        {
          "name": "",
          "type": "uint32"
        },
        {
          "name": "",
          "type": "uint256"
        }
      ],
      "payable": false,
      "stateMutability": "view",
      "type": "function"
    },
    {
      "constant": false,
      "inputs": [
        {
          "name": "url",
          "type": "string"
        }
      ],
      "name": "unregisterLink",
      "outputs": [],
      "payable": false,
      "stateMutability": "nonpayable",
      "type": "function"
    },
    {
      "constant": false,
      "inputs": [
        {
          "name": "url",
          "type": "string"
        }
      ],
      "name": "recoverLink",
      "outputs": [],
      "payable": false,
      "stateMutability": "nonpayable",
      "type": "function"
    },
    {
      "constant": false,
      "inputs": [
        {
          "name": "url",
          "type": "string"
        }
      ],
      "name": "likeLink",
      "outputs": [],
      "payable": true,
      "stateMutability": "payable",
      "type": "function"
    },
    {
      "constant": false,
      "inputs": [
        {
          "name": "url",
          "type": "string"
        }
      ],
      "name": "dislike",
      "outputs": [],
      "payable": false,
      "stateMutability": "nonpayable",
      "type": "function"
    }
  ],
  "bytecode": "0x60806040526001600060146101000a81548160ff021916908315150217905550683635c9adc5dea00000600155336000806101000a81548173ffffffffffffffffffffffffffffffffffffffff021916908373ffffffffffffffffffffffffffffffffffffffff1602179055506118fd8061007b6000396000f3006080604052600436106100db576000357c0100000000000000000000000000000000000000000000000000000000900463ffffffff168063178c5ab5146100e0578063238dafe01461013c57806324b9e6a81461016b578063367edd32146101d45780634e128688146101eb57806354e38f921461025457806358f37f67146102bd578063894ba833146103265780638da5cb5b1461033d578063a9efc04014610394578063ba26c49a146103fd578063e5ee94c3146104c0578063ed478c8114610529578063efbff84314610554578063f2fde38b14610581575b600080fd5b61013a600480360381019080803590602001908201803590602001908080601f01602080910402602001604051908101604052809392919081815260200183838082843782019150505050505091929192905050506105c4565b005b34801561014857600080fd5b5061015161098f565b604051808215151515815260200191505060405180910390f35b34801561017757600080fd5b506101d2600480360381019080803590602001908201803590602001908080601f01602080910402602001604051908101604052809392919081815260200183838082843782019150505050505091929192905050506109a2565b005b3480156101e057600080fd5b506101e9610a87565b005b3480156101f757600080fd5b50610252600480360381019080803590602001908201803590602001908080601f0160208091040260200160405190810160405280939291908181526020018383808284378201915050505050509192919290505050610aff565b005b34801561026057600080fd5b506102bb600480360381019080803590602001908201803590602001908080601f0160208091040260200160405190810160405280939291908181526020018383808284378201915050505050509192919290505050610d2f565b005b3480156102c957600080fd5b50610324600480360381019080803590602001908201803590602001908080601f0160208091040260200160405190810160405280939291908181526020018383808284378201915050505050509192919290505050610e14565b005b34801561033257600080fd5b5061033b61101f565b005b34801561034957600080fd5b50610352611096565b604051808273ffffffffffffffffffffffffffffffffffffffff1673ffffffffffffffffffffffffffffffffffffffff16815260200191505060405180910390f35b3480156103a057600080fd5b506103fb600480360381019080803590602001908201803590602001908080601f01602080910402602001604051908101604052809392919081815260200183838082843782019150505050505091929192905050506110bb565b005b34801561040957600080fd5b50610464600480360381019080803590602001908201803590602001908080601f01602080910402602001604051908101604052809392919081815260200183838082843782019150505050505091929192905050506112c6565b604051808473ffffffffffffffffffffffffffffffffffffffff1673ffffffffffffffffffffffffffffffffffffffff1681526020018363ffffffff1663ffffffff168152602001828152602001935050505060405180910390f35b3480156104cc57600080fd5b50610527600480360381019080803590602001908201803590602001908080601f01602080910402602001604051908101604052809392919081815260200183838082843782019150505050505091929192905050506113cf565b005b34801561053557600080fd5b5061053e6116fa565b6040518082815260200191505060405180910390f35b34801561056057600080fd5b5061057f60048036038101908080359060200190929190505050611700565b005b34801561058d57600080fd5b506105c2600480360381019080803573ffffffffffffffffffffffffffffffffffffffff16906020019092919050505061177c565b005b600080600060149054906101000a900460ff1615156105e257600080fd5b826002816040518082805190602001908083835b60208310151561061b57805182526020820191506020810190506020830392506105f6565b6001836020036101000a038019825116818451168082178552505050505050905001915050908152602001604051809103902060020160019054906101000a900460ff161580156106e557506002816040518082805190602001908083835b60208310151561069f578051825260208201915060208101905060208303925061067a565b6001836020036101000a038019825116818451168082178552505050505050905001915050908152602001604051809103902060020160009054906101000a900460ff16155b15156106f057600080fd5b600154341115151561070157600080fd5b6002846040518082805190602001908083835b6020831015156107395780518252602082019150602081019050602083039250610714565b6001836020036101000a038019825116818451168082178552505050505050905001915050908152602001604051809103902092508260030160003373ffffffffffffffffffffffffffffffffffffffff1673ffffffffffffffffffffffffffffffffffffffff16815260200190815260200160002060009054906101000a900460ff16915081151561085e5782600001601481819054906101000a900463ffffffff168092919060010191906101000a81548163ffffffff021916908363ffffffff1602179055505060018360030160003373ffffffffffffffffffffffffffffffffffffffff1673ffffffffffffffffffffffffffffffffffffffff16815260200190815260200160002060006101000a81548160ff0219169083151502179055505b60003411156108e5578260000160009054906101000a900473ffffffffffffffffffffffffffffffffffffffff1673ffffffffffffffffffffffffffffffffffffffff166108fc349081150290604051600060405180830381858888f193505050501580156108d1573d6000803e3d6000fd5b503483600101600082825401925050819055505b7f94a534e02d97bffa056018d7615fda436e3386cee83410685b08ad150b7bdf6484346040518080602001838152602001828103825284818151815260200191508051906020019080838360005b8381101561094e578082015181840152602081019050610933565b50505050905090810190601f16801561097b5780820380516001836020036101000a031916815260200191505b50935050505060405180910390a150505050565b600060149054906101000a900460ff1681565b6000809054906101000a900473ffffffffffffffffffffffffffffffffffffffff1673ffffffffffffffffffffffffffffffffffffffff163373ffffffffffffffffffffffffffffffffffffffff161415156109fd57600080fd5b60016002826040518082805190602001908083835b602083101515610a375780518252602082019150602081019050602083039250610a12565b6001836020036101000a038019825116818451168082178552505050505050905001915050908152602001604051809103902060020160006101000a81548160ff02191690831515021790555050565b6000809054906101000a900473ffffffffffffffffffffffffffffffffffffffff1673ffffffffffffffffffffffffffffffffffffffff163373ffffffffffffffffffffffffffffffffffffffff16141515610ae257600080fd5b6001600060146101000a81548160ff021916908315150217905550565b600060149054906101000a900460ff161515610b1a57600080fd5b600073ffffffffffffffffffffffffffffffffffffffff166002826040518082805190602001908083835b602083101515610b6a5780518252602082019150602081019050602083039250610b45565b6001836020036101000a038019825116818451168082178552505050505050905001915050908152602001604051809103902060000160009054906101000a900473ffffffffffffffffffffffffffffffffffffffff1673ffffffffffffffffffffffffffffffffffffffff16141515610be357600080fd5b336002826040518082805190602001908083835b602083101515610c1c5780518252602082019150602081019050602083039250610bf7565b6001836020036101000a038019825116818451168082178552505050505050905001915050908152602001604051809103902060000160006101000a81548173ffffffffffffffffffffffffffffffffffffffff021916908373ffffffffffffffffffffffffffffffffffffffff1602179055507f41d842c22e2477945c81b588feb0f50b46adf080294a4acab22df558d86a1dd9816040518080602001828103825283818151815260200191508051906020019080838360005b83811015610cf2578082015181840152602081019050610cd7565b50505050905090810190601f168015610d1f5780820380516001836020036101000a031916815260200191505b509250505060405180910390a150565b6000809054906101000a900473ffffffffffffffffffffffffffffffffffffffff1673ffffffffffffffffffffffffffffffffffffffff163373ffffffffffffffffffffffffffffffffffffffff16141515610d8a57600080fd5b60006002826040518082805190602001908083835b602083101515610dc45780518252602082019150602081019050602083039250610d9f565b6001836020036101000a038019825116818451168082178552505050505050905001915050908152602001604051809103902060020160006101000a81548160ff02191690831515021790555050565b600060149054906101000a900460ff161515610e2f57600080fd5b803373ffffffffffffffffffffffffffffffffffffffff166002826040518082805190602001908083835b602083101515610e7f5780518252602082019150602081019050602083039250610e5a565b6001836020036101000a038019825116818451168082178552505050505050905001915050908152602001604051809103902060000160009054906101000a900473ffffffffffffffffffffffffffffffffffffffff1673ffffffffffffffffffffffffffffffffffffffff16141515610ef857600080fd5b60006002836040518082805190602001908083835b602083101515610f325780518252602082019150602081019050602083039250610f0d565b6001836020036101000a038019825116818451168082178552505050505050905001915050908152602001604051809103902060020160016101000a81548160ff0219169083151502179055507f8f64ca14a7461844b1267b6a1165a2fbb2ba1156f4bf6d7ef328e0e8e9c0f96d826040518080602001828103825283818151815260200191508051906020019080838360005b83811015610fe1578082015181840152602081019050610fc6565b50505050905090810190601f16801561100e5780820380516001836020036101000a031916815260200191505b509250505060405180910390a15050565b6000809054906101000a900473ffffffffffffffffffffffffffffffffffffffff1673ffffffffffffffffffffffffffffffffffffffff163373ffffffffffffffffffffffffffffffffffffffff1614151561107a57600080fd5b60008060146101000a81548160ff021916908315150217905550565b6000809054906101000a900473ffffffffffffffffffffffffffffffffffffffff1681565b600060149054906101000a900460ff1615156110d657600080fd5b803373ffffffffffffffffffffffffffffffffffffffff166002826040518082805190602001908083835b6020831015156111265780518252602082019150602081019050602083039250611101565b6001836020036101000a038019825116818451168082178552505050505050905001915050908152602001604051809103902060000160009054906101000a900473ffffffffffffffffffffffffffffffffffffffff1673ffffffffffffffffffffffffffffffffffffffff1614151561119f57600080fd5b60016002836040518082805190602001908083835b6020831015156111d957805182526020820191506020810190506020830392506111b4565b6001836020036101000a038019825116818451168082178552505050505050905001915050908152602001604051809103902060020160016101000a81548160ff0219169083151502179055507f1e99f3494db7cf12209483d3f2ecd0b6b2b41612f7ca4aef30f055abb48fb036826040518080602001828103825283818151815260200191508051906020019080838360005b8381101561128857808201518184015260208101905061126d565b50505050905090810190601f1680156112b55780820380516001836020036101000a031916815260200191505b509250505060405180910390a15050565b600080600080600060149054906101000a900460ff1615156112e757600080fd5b6002856040518082805190602001908083835b60208310151561131f57805182526020820191506020810190506020830392506112fa565b6001836020036101000a038019825116818451168082178552505050505050905001915050908152602001604051809103902090508060020160019054906101000a900460ff16156113815760008060008191508090509350935093506113c7565b8060000160009054906101000a900473ffffffffffffffffffffffffffffffffffffffff168160000160149054906101000a900463ffffffff1682600101549350935093505b509193909250565b600080600060149054906101000a900460ff1615156113ed57600080fd5b826002816040518082805190602001908083835b6020831015156114265780518252602082019150602081019050602083039250611401565b6001836020036101000a038019825116818451168082178552505050505050905001915050908152602001604051809103902060020160019054906101000a900460ff161580156114f057506002816040518082805190602001908083835b6020831015156114aa5780518252602082019150602081019050602083039250611485565b6001836020036101000a038019825116818451168082178552505050505050905001915050908152602001604051809103902060020160009054906101000a900460ff16155b15156114fb57600080fd5b6002846040518082805190602001908083835b602083101515611533578051825260208201915060208101905060208303925061150e565b6001836020036101000a038019825116818451168082178552505050505050905001915050908152602001604051809103902092508260030160003373ffffffffffffffffffffffffffffffffffffffff1673ffffffffffffffffffffffffffffffffffffffff16815260200190815260200160002060009054906101000a900460ff16915081156116f45782600001601481819054906101000a900463ffffffff16809291906001900391906101000a81548163ffffffff021916908363ffffffff1602179055505060008360030160003373ffffffffffffffffffffffffffffffffffffffff1673ffffffffffffffffffffffffffffffffffffffff16815260200190815260200160002060006101000a81548160ff0219169083151502179055507f6306797731307679de6e1f1dfcc0883b2ba03ef6e0eadb95a39435c8e90494af846040518080602001828103825283818151815260200191508051906020019080838360005b838110156116b957808201518184015260208101905061169e565b50505050905090810190601f1680156116e65780820380516001836020036101000a031916815260200191505b509250505060405180910390a15b50505050565b60015481565b6000809054906101000a900473ffffffffffffffffffffffffffffffffffffffff1673ffffffffffffffffffffffffffffffffffffffff163373ffffffffffffffffffffffffffffffffffffffff1614151561175b57600080fd5b670de0b6b3a7640000811015151561177257600080fd5b8060018190555050565b6000809054906101000a900473ffffffffffffffffffffffffffffffffffffffff1673ffffffffffffffffffffffffffffffffffffffff163373ffffffffffffffffffffffffffffffffffffffff161415156117d757600080fd5b600073ffffffffffffffffffffffffffffffffffffffff168173ffffffffffffffffffffffffffffffffffffffff161415151561181357600080fd5b8073ffffffffffffffffffffffffffffffffffffffff166000809054906101000a900473ffffffffffffffffffffffffffffffffffffffff1673ffffffffffffffffffffffffffffffffffffffff167f8be0079c531659141344cd1fd0a4f28419497f9722a3daafe3b4186f6b6457e060405160405180910390a3806000806101000a81548173ffffffffffffffffffffffffffffffffffffffff021916908373ffffffffffffffffffffffffffffffffffffffff160217905550505600a165627a7a72305820127f37ba832e530a38b36bea2d7a70175045d8302aa0a6bd16258cf5084dbe810029",
  "source": "// SPDX-License-Identifier: MIT\npragma solidity >=0.4.22 <0.9.0;\nimport \"./Enable.sol\";\n\ncontract Like is Enable {\n    event RegisterSuccess(string url);\n    event Unregister(string url);\n    event RecoverLink(string url);\n    event LikeLink(string url, uint256 amount); \n    event Dislike(string url);\n\n    // uint256 public minDonationLimit = 1 ether;\n    uint256 public maxDonationLimit = 1000 ether;\n\n    struct Link {\n        address author;\n        uint32 likeCount;\n        uint256 donationAmount;\n        bool disable;\n        bool deleted;\n        mapping(address => bool) likedAddress;\n    }\n\n    mapping(string => Link) urlToAuthor;\n\n    modifier onlyAuthor(string memory url) {\n        require(urlToAuthor[url].author == msg.sender);\n        _;\n    }\n\n    modifier onlyActivated(string memory url) {\n        require(!urlToAuthor[url].deleted && !urlToAuthor[url].disable);\n        _;\n    }\n\n    // function setMinDonationLimit(uint256 limit) public onlyOwner {\n    //     require(limit >= 1 ether);\n    //     minDonationLimit = limit;\n    // }\n\n    function setMaxDonationLimit(uint256 limit) public onlyOwner {\n        require(limit >= 1 ether);\n        maxDonationLimit = limit;\n    }\n\n    function disableLinkByAdmin(string memory url) public onlyOwner {\n        urlToAuthor[url].disable = true;\n    }\n\n    function enableLinkByAdmin(string memory url) public onlyOwner {\n        urlToAuthor[url].disable = false;\n    }\n\n    function registerLink(string memory url) public onlyEnabled {\n        require(urlToAuthor[url].author == address(0));\n        urlToAuthor[url].author = msg.sender;\n        emit RegisterSuccess(url);\n    }\n\n    function getOwnerFromUrl(string memory url)\n        public\n        view\n        onlyEnabled\n        returns (\n            address,\n            uint32,\n            uint256\n        )\n    {\n        Link storage link = urlToAuthor[url];\n        if (link.deleted) {\n            return (address(0), 0, 0);\n        }\n        return (link.author, link.likeCount, link.donationAmount);\n    }\n\n    function unregisterLink(string memory url)\n        public\n        onlyEnabled\n        onlyAuthor(url)\n    {\n        urlToAuthor[url].deleted = true;\n        emit Unregister(url);\n    }\n\n    function recoverLink(string memory url) public onlyEnabled onlyAuthor(url) {\n        urlToAuthor[url].deleted = false;\n        emit RecoverLink(url);\n    }\n\n    function likeLink(string memory url)\n        public\n        payable\n        onlyEnabled\n        onlyActivated(url)\n    {\n        require(msg.value <= maxDonationLimit);\n        Link storage link = urlToAuthor[url];\n        bool liked = link.likedAddress[msg.sender];\n        if (!liked) {\n            link.likeCount++;\n            link.likedAddress[msg.sender] = true;\n        }\n\n        if (msg.value > 0) {\n            link.author.transfer(msg.value);\n            link.donationAmount += msg.value;\n        }\n\n        emit LikeLink(url, msg.value);\n    }\n\n    function dislike(string memory url) public onlyEnabled onlyActivated(url) {\n        Link storage link = urlToAuthor[url];\n        bool liked = link.likedAddress[msg.sender];\n        if (liked) {\n            link.likeCount--;\n            link.likedAddress[msg.sender] = false;\n            emit Dislike(url);\n        }\n    }\n}\n",
  "sourcePath": "/home/zhangk/Documents/github/cpchain-dapps-like/contracts/Like.sol",
  "compiler": {
    "name": "solc",
    "version": "0.4.25+commit.59dbf8f1.Linux.g++"
  },
  "schemaVersion": "3.4.4",
  "updatedAt": "2022-02-10T01:43:54.818Z",
  "devdoc": {
    "methods": {
      "disableContract()": {
        "details": "set contract disable"
      },
      "enableContract()": {
        "details": "set contract enable"
      }
    }
  },
  "userdoc": {
    "methods": {
      "transferOwnership(address)": {
        "notice": "Allows the current owner to transfer control of the contract to a newOwner. "
      }
    }
  }
}